:050287004202A6000088
:100C5E00438920759852758DFDE4F599758780D27C
:100C6E008E9002A5F09002A8F0A3F0A3F0A3F0FFDF
:0B0C7E00FE7E1E90029BE4F0A3DEFC53
:010C89002248
:080CE5003099FD8F99C299229C
:070CED003098FDAF99C29899
:010CF40022DD
:100BBD0090024F7401F0A37402F0A3742CF0120094
:100BCD000EAD07AC06E4FBFAC3EB9DEC6480F8EACE
:100BDD006480985016742C2BF582E43402F583E072
:0B0BED00FF120CE50BBB00010A80DDCD
:010BF80022DA
:100CB50074011209D6908005E0FF30E0089000012C
:100CC50074FF0209E8EF30E10890000174F01209A1
:020CD500E82213
:10028C00620000000000102120423063408450A521
:10029C0060C670E781089129A14AB16BC18CD1ADC0
:1002AC00E1CEF1EF123102103273225252B5429468
:1002BC0072F762D693398318B37BA35AD3BDC39C10
:1002CC00F3FFE3DE246234430420140164E674C7B4
:1002DC0044A45485A56AB54B85289509E5EEF5CF60
:1002EC00C5ACD58D365326721611063076D766F608
:1002FC00569546B4B75BA77A97198738F7DFE7FEB0
:10030C00D79DC7BC48C458E5688678A708401861D3
:10031C0028023823C9CCD9EDE98EF9AF89489969FF
:10032C00A90AB92B5AF54AD47AB76A961A710A50A7
:10033C003A332A12DBFDCBDCFBBFEB9E9B798B584F
:10034C00BB3BAB1A6CA67C874CE45CC52C223C03F3
:10035C000C601C41EDAEFD8FCDECDDCDAD2ABD0B9F
:10036C008D689D497E976EB65ED54EF43E132E3247
:10037C001E510E70FF9FEFBEDFDDCFFCBF1BAF3AEF
:10038C009F598F78918881A9B1CAA1EBD10CC12D4D
:10039C00F14EE16F108000A130C220E350044025E3
:1003AC007046606783B99398A3FBB3DAC33DD31C43
:1003BC00E37FF35E02B1129022F332D24235521433
:1003CC0062777256B5EAA5CB95A88589F56EE54F8F
:1003DC00D52CC50D34E224C314A004817466644783
:1003EC0054244405A7DBB7FA879997B8E75FF77EE3
:1003FC00C71DD73C26D336F2069116B066577676D3
:10040C0046155634D94CC96DF90EE92F99C889E9AE
:10041C00B98AA9AB584448657806682718C008E122
:10042C00388228A3CB7DDB5CEB3FFB1E8BF99BD882
:10043C00ABBBBB9A4A755A546A377A160AF11AD072
:10044C002AB33A92FD2EED0FDD6CCD4DBDAAAD8BCE
:10045C009DE88DC97C266C075C644C453CA22C83C2
:10046C001CE00CC1EF1FFF3ECF5DDF7CAF9BBFBA22
:10047C008FD99FF86E177E364E555E742E933EB212
:04048C000ED11EF07F
:100B4E00900258EBF0A3EAF0A3E9F0A3ECF0A3EDCA
:010B5E00F0A6
:100B5F00E4A3F0A3F090025B74FFF5F0120A3245A4
:100B6F00F06042900258E0FBA3E475F001120A32E4
:100B7F00A9F0FA120990FD90025DE0FAA3E0FBEAFA
:100B8F00FFE4EF6D25E0FFE433FE74002FF5827470
:100B9F00003EF583EBFEE06EFFA3E090025DCFF029
:0D0BAF00A3EFF080B090025DE0FEA3E0FF38
:010BBC002216
:100AD40090022CEBF0A3EAF0A3E9F0A3ECF0A3ED71
:010AE400F021
:100AE500E4A3F0A3F090022F74FFF5F0120A32454B
:100AF500F0604290022CE0FBA3E475F001120A328B
:100B0500A9F0FA120990FD900231E0FAA3E0FBEAA0
:100B1500FFE4EF6D25E0FFE433FE74002FF58274EA
:100B2500003EF583EBFEE06EFFA3E0900231CFF0CF
:100B3500A3EFF080B0900231E07002A3E07005FEF3
:080B45007F0180047E007F00A7
:010B4D002285
:10049E00E4900227F0A3F0120C5E120CD7120C2D72
:1004AE00D2A8D2AFE490022BF09002A6E07004A383
:1004BE00E0640170069002A6F0A3F09002A5E0643D
:1004CE00016003020571900229F0A3F0900229E069
:1004DE00FAA3E0FBC39402EA648094804003020511
:1004EE006CEB25E0FFEA33FE74A82FF58274023E12
:1004FE00F583E0FEA3E0D39400EE9400404F7C0021
:10050E007D1EAF03AE02120A0A745F2FF974023E0B
:10051E00FA7B0190022AE025E0FF900229E033FEEB
:10052E0074A82FF58274023EF583E0FCA3E0FD1261
:10053E000BBD90022AE025E0FF900229E033FE7405
:10054E00A82FF58274023EF583E4F0A3F090022A00
:10055E00E004F07006900229E004F00204DAE49060
:10056E0002A5F02098030204B7120CED90022BEFB7
:10057E00F07B017A0279091205FA900227EEF0A3B8
:10058E00EFF0D39400EE6480948050030204B77BA6
:10059E00017A027909900227E0FCA3E0FD120AD449
:1005AE00EF64014E703C900209E024E0601D2410BF
:1005BE0070307B017A027909900228E024FEFD90CA
:1005CE000227E034FFFC1207F880177B017A0279CC
:1005DE0009900228E024FEFD900227E034FFFC1271
:0C05EE0007F8E4900227F0A3F00204B725
:10000E0090024AEBF0A3EAF0A3E9F0A3ECF0A3ED23
:01001E00F0F1
:10001F00E4900252F0A3F0120B4E900256EEF0A3B2
:10002F00EFF090024FE0FBA3E475F001120A32A942
:10003F00F0FA74C01209D6900252E4F0A304F0E46F
:10004F00A3F0A3F090024DE0FEA3E0FFC390025592
:10005F00E09FEE6480F8900254E0648098400302C1
:10006F00013990024AE0FBA3E0FAA3E0F9120990EC
:10007F00FF2425603E241B707490024FE0FBA3E425
:10008F0075F001120A32A9F0FA74DB1209D6900248
:10009F004FE0FBA3E475F001120A32A9F0FA74DC09
:1000AF001209D6900253E004F07056900252E00409
:1000BF00F0804E90024FE0FBA3E475F001120A327C
:1000CF00A9F0FA74DB1209D690024FE0FBA3E47596
:1000DF00F001120A32A9F0FA74DD1209D690025318
:1000EF00E004F0701C900252E004F0801490024F74
:1000FF00E0FBA3E475F001120A32A9F0FAEF12093E
:10010F00D6900253E004F07006900252E004F09093
:10011F00024BE475F001120A1C900255E004F070D6
:10012F0006900254E004F0020053900256E0FF24C0
:10013F0025603E241B707490024FE0FBA3E475F022
:10014F0001120A32A9F0FA74DB1209D690024FE0BD
:10015F00FBA3E475F001120A32A9F0FA74DC12095C
:10016F00D6900253E004F07056900252E004F080F3
:10017F004E90024FE0FBA3E475F001120A32A9F092
:10018F00FA74DB1209D690024FE0FBA3E475F0017D
:10019F00120A32A9F0FA74DD1209D6900253E00464
:1001AF00F0701C900252E004F0801490024FE0FBBC
:1001BF00A3E475F001120A32A9F0FAEF1209D690F2
:1001CF000257E0FF2425603E241B707490024FE01D
:1001DF00FBA3E475F001120A32A9F0FA74DB1209DD
:1001EF00D690024FE0FBA3E475F001120A32A9F09A
:1001FF00FA74DC1209D6900253E004F070569002A4
:10020F0052E004F0804E90024FE0FBA3E475F00142
:10021F00120A32A9F0FA74DB1209D690024FE0FBF2
:10022F00A3E475F001120A32A9F0FA74DD1209D6AF
:10023F00900253E004F0701C900252E004F080141E
:10024F0090024FE0FBA3E475F001120A32A9F0FA15
:10025F00EF1209D690024FE0FBA3E475F001120AEA
:10026F0032A9F0FA74C01209D6900253E02403FFAA
:07027F00900252E03400FE82
:010286002255
:0D05FA0090022CEBF0A3EAF0A3E9F0AD07AE
:100607009002ACE07002A3E06022E49002ACF0A399
:10061700F0EDB4DC057DC00206A8EDB4DD057DDB99
:100627000206A8E49002AEF0A3F08075EDB4DB0DEE
:100637009002ACE4F0A304F07E007F0022ED64C0DA
:10064700705F9002AEE07002A3E0702890022CE089
:10065700F9A3E0FAA3E09002B2C9F0A3EAF0A3E994
:10066700F0E49002B0F0A3F09002AEF0A304F07EA5
:10067700007F00229002B0E0FEA3E0FF90022FEE81
:10068700F0A3EFF090022CE0F9A3E0FAA3E09002C8
:10069700B2C9F0A3EAF0A3E9F0E49002B0F0A3F046
:1006A700229002AEE07004A3E064017061C390027F
:1006B700B0E06480948150249002B2E0FBA3E4751B
:1006C700F001120A32A9F0FAED1209D69002B1E050
:1006D70004F0703A9002B0E004F08032E49002AE89
:1006E700F0A3F0A3E0FEA3E0FF90022FEEF0A3EF4C
:1006F700F090022CE0F9A3E0FAA3E09002B2C9F06F
:10070700A3EAF0A3E9F0E49002B0F0A3F0227E00A0
:020717007F0061
:0107190022BD
:080490004102B6004102B50073
:100C2D009080017480F090800374E2F090800074E5
:100C3D00C3F0908002744AF0908007748FF0A37413
:100C4D00E0F0120C8A9080037402F0E4908001F0C1
:010C5D002274
:100C8A00908001E04480F0E4908020F0A37420F08A
:100C9A00E4908030F0A37420F09080407480F0A338
:0B0CAA007420F0908001E0547FF022E5
:070CF500908003742AF02235
:1007F80090022CEBF0A3EAF0A3E9F0A3ECF0A3ED50
:01080800F0FF
:10080900A3E4F0A37410F0ED24FE900234F0EC346C
:10081900FF900233F090022CE0FBA3E0FAA3E0F989
:100829009000011209A924FE601314601C240270AF
:10083900249002357410F0A37420F08021900235C1
:100849007410F0A37440F080159002357410F0A371
:100859007460F080099002357410F0A3E4F09002FE
:1008690035E0908010F0900236E0908011F0E4FFBE
:10087900FED3900230E09FEE6480F890022FE0648E
:1008890080984032EF9408EE64809480502890025A
:100899002CE0FBA3E0FAA3E0F98F828E83A3A312D5
:1008A90009A9FD74142FF582E43480F583EDF00F66
:1008B900BF00010E80BB908001E05480FFF09002E0
:0A08C90034E04F908001F0020CF5BE
:1008D300900202EBF0A3EAF0A3E9F0A3ECF0A3ED9E
:0108E300F024
:1008E400E4A3F0A3F0900206E0FF240CF582E434C4
:1008F40080F583E0540FF0740C2FF582E43480F516
:1009040083E0FF900207E4F0A3EFF0E4FFFED3904E
:100914000208E09FEE6480F8900207E0648098404B
:1009240034EF9408EE64809480502A900206E02FFD
:100934002404F582E43480F583E0FD900202E0FBB8
:10094400A3E0FAA3E0F98F828E83ED1209E80FBFCA
:1009540000010E80B9900205E0FEA3E0FFEE7023D3
:10096400EF24D0601024F0601424207016908004CA
:100974007401F0800E9080047402F080069080046C
:0B0984007404F0900207E0FEA3E0FF07
:01098F002245
:050498004202B7000064
:03000B00020BF9EC
:100BF900C0E0C083C082C0D09002B7E0B4130EA396
:100C0900E0B488099002B7E4F0A3F0800E9002B82E
:100C1900E004F070069002B7E004F0D0D0D082D0A2
:040C290083D0E03262
:0300030002071AD7
:10071A00C0E0C0F0C083C082C0D075D000C000C0A5
:0D072A0001C002C003C004C005C006C00726
:10073700C2AF908005E0540360117B017A02799B78
:10074700120CB59002A6E4F0A304F0908006E054E2
:1007570007607A9002A6E4F0A3F0908005E0543099
:10076700FFC4540FFF0475F010A4FF900200E5F0DA
:10077700F0A3EFF09002A8E07002A3E070217B01E4
:100787007A02795F900200E0FCA3E0FD1208D390A3
:1007970002A8EEF0A3EFF09002A57401F0802ED32B
:1007A7009002A9E094009002A8E09400401F7B010A
:1007B7007A02797D900200E0FCA3E0FD1208D39055
:1007C70002AAEEF0A3EFF09002A57401F090800367
:0607D700E04420F0D2AF67
:1007DD00D007D006D005D004D003D002D001D00070
:0B07ED00D0D0D082D083D0F0D0E0321A
:0E0CD700438902758C37858C8AD2A9D28C2273
:03000000020A48A9
:0C0A4800787FE4F6D8FD758107020A8F64
:10099000BB010689828A83E0225002E722BBFE0265
:0909A000E32289828A83E4932298
:1009A900BB010CE58229F582E5833AF583E0225003
:1009B90006E92582F8E622BBFE06E92582F8E2224D
:0D09C900E58229F582E5833AF583E4932267
:1009D600BB010689828A83F0225002F722BBFE0100
:0209E600F322FA
:1009E800F8BB010DE58229F582E5833AF583E8F045
:1009F800225006E92582C8F622BBFE05E92582C8F1
:020A0800F222D8
:100A0A00EF8DF0A4A8F0CF8CF0A428CE8DF0A42E00
:020A1A00FE22BA
:100A1C00C5F0F8A3E028F0C5F0F8E5821582700265
:060A2C001583E038F02202
:100A3200A3F8E0C5F025F0F0E58215827002158377
:060A4200E0C838F0E822D4
:100A540002049EE493A3F8E493A34003F68001F216
:100A640008DFF48029E493A3F85407240CC8C333A3
:100A7400C4540F4420C8834004F456800146F6DF72
:100A8400E4800B0102040810204080900287E47E79
:100A9400019360BCA3FF543F30E509541FFEE49367
:100AA400A360010ECF54C025E060A840B8E493A32E
:100AB400FAE493A3F8E493A3C8C582C8CAC583CA59
:100AC400F0A3C8C582C8CAC583CADFE9DEE780BE11
:01049D00005E
:00000001FF
