:094279004203C500004103C4002A
:10516B00C2AF438920759850758DFBE4F59975870F
:10517B0080D2AFD28E9003A3F0A3F0A3F0FFFE7EFC
:09518B001E900385E4F0A3DEFC94
:0151940022F8
:0851CC003099FD8F99C2992270
:0751D4003098FDAF99C2986D
:0151DB0022B1
:10512F009003757401F0A37403F0A37452F012404E
:10513F0000AD07AC06E4FBFAC3EB9DEC6480F8EA24
:10514F00648098501674522BF582E43403F583E093
:0B515F00FF1251CC0BBB00010A80DDE9
:01516A002222
:1050E8007402124A967801E2FF30E70890000174D2
:1050F800FF024AA8EF540724FE601314601824FD29
:10510800601C2405702090000174F0024AA89000E9
:105118000174F1024AA890000174F2024AA89000B2
:075128000174F3124AA822F2
:10428200620001000000102120423063408450A5EA
:1042920060C670E781089129A14AB16BC18CD1AD8A
:1042A200E1CEF1EF123102103273225252B5429432
:1042B20072F762D693398318B37BA35AD3BDC39CDA
:1042C200F3FFE3DE246234430420140164E674C77E
:1042D20044A45485A56AB54B85289509E5EEF5CF2A
:1042E200C5ACD58D365326721611063076D766F6D2
:1042F200569546B4B75BA77A97198738F7DFE7FE7A
:10430200D79DC7BC48C458E5688678A7084018619D
:1043120028023823C9CCD9EDE98EF9AF89489969C9
:10432200A90AB92B5AF54AD47AB76A961A710A5071
:104332003A332A12DBFDCBDCFBBFEB9E9B798B5819
:10434200BB3BAB1A6CA67C874CE45CC52C223C03BD
:104352000C601C41EDAEFD8FCDECDDCDAD2ABD0B69
:104362008D689D497E976EB65ED54EF43E132E3211
:104372001E510E70FF9FEFBEDFDDCFFCBF1BAF3AB9
:104382009F598F78918881A9B1CAA1EBD10CC12D17
:10439200F14EE16F108000A130C220E350044025AD
:1043A2007046606783B99398A3FBB3DAC33DD31C0D
:1043B200E37FF35E02B1129022F332D242355214FD
:1043C20062777256B5EAA5CB95A88589F56EE54F59
:1043D200D52CC50D34E224C314A00481746664474D
:1043E20054244405A7DBB7FA879997B8E75FF77EAD
:1043F200C71DD73C26D336F2069116B0665776769D
:1044020046155634D94CC96DF90EE92F99C889E978
:10441200B98AA9AB584448657806682718C008E1EC
:10442200388228A3CB7DDB5CEB3FFB1E8BF99BD84C
:10443200ABBBBB9A4A755A546A377A160AF11AD03C
:104442002AB33A92FD2EED0FDD6CCD4DBDAAAD8B98
:104452009DE88DC97C266C075C644C453CA22C838C
:104462001CE00CC1EF1FFF3ECF5DDF7CAF9BBFBAEC
:104472008FD99FF86E177E364E555E742E933EB2DC
:044482000ED11EF049
:1050790090037EEBF0A3EAF0A3E9F0A3ECF0A3ED33
:01508900F036
:10508A00E4A3F0A3F090038174FFF5F0124AE0451F
:10509A00F0604290037EE0FBA3E475F001124AE05F
:1050AA00A9F0FA124A50FD900383E0FAA3E0FBEA62
:1050BA00FFE4EF6D25E0FFE433FE74002FF5827400
:1050CA00013EF583EBFEE06EFFA3E0900383CFF091
:0D50DA00A3EFF080B0900383E0FEA3E0FFA1
:0150E70022A6
:104F880090032EEBF0A3EAF0A3E9F0A3ECF0A3ED75
:014F9800F028
:104F9900E4A3F0A3F090033174FFF5F0124AE04561
:104FA900F0604290032EE0FBA3E475F001124AE0A1
:104FB900A9F0FA124A50FD900333E0FAA3E0FBEAA4
:104FC900FFE4EF6D25E0FFE433FE74002FF58274F2
:104FD900013EF583EBFEE06EFFA3E0900333CFF0D3
:104FE900A3EFF080B0900333E07002A3E07005FEF8
:084FF9007F0180047E007F00AF
:01500100228C
:054486004203D6000016
:03000B000250029E
:10500200C0E0C0F0C083C082C0D075D000C000C074
:1050120001C002C003C004C005C006C0079003D689
:10502200E0FEA3E0FFE4FCFD7B407A9CF9F8C312AA
:105032004B23701A9003C704F0A3741FF09003C4AB
:105042007401F0B2E89003D6E4F0A3F0800E90036E
:10505200D7E004F070069003D6E004F0D007D00643
:10506200D005D004D003D002D001D000D0D0D0825D
:07507200D083D0F0D0E03242
:03008B00024CD94B
:104CD900C0E0C0F0C083C082C0D075D000C000C0A1
:0D4CE90001C002C003C004C005C006C00722
:104CF6007802E2900301F018E2900300F030E71327
:104D06007B017A0379851250E89003C5E4F0A30489
:104D1600F0B2EB900301E0FFC394034052EF24FE90
:104D260075F010A4FFA3E5F0F0A3EFF09003C5E43F
:104D3600F0A3F0900300E0FF30E302B2E9EF30E4C5
:104D460024900303E02408F8E2B41F069003D3740A
:104D560001F07B017A0379A3900302E0FCA3E0FD56
:0F4D6600124C1CB2EA900303E02400F874FDF233
:104D7500D007D006D005D004D003D002D001D00092
:0B4D8500D0D0D082D083D0F0D0E0323C
:0D51BF00D2E8D2E9D2EAD2EBD2ECD2ED2256
:10491E00E490034CF0A3F0A3F0A3F0C3ED9402ECEB
:10492E00648094805003024A4F900001124A69FF3E
:10493E00D3940F4003024A4FEF60030249D1900017
:10494E0002124A69FFB4FF47E490032EF090035021
:10495E00F0A3F0900351E0FE2400F8E2FD742F2E38
:10496E00F582E43403F583EDF0900351E004F0702A
:10497E0006900350E004F0900350E07004A3E0644E
:10498E001070D090034CE4F0A37411F0024A34EF8F
:10499E00C394005003024A34EFD3940F4003024AEB
:1049AE0034900002124A69FF90034EE4F0A3EFF038
:1049BE00E02400F8E290032EF090034CE4F0A30400
:1049CE00F0806390034CE4F0A37411F09000011298
:1049DE004A6975F010A4FF90034EE5F0F0A3EFF0D6
:1049EE00900001124A6990032EF0E4900350F0A358
:1049FE00F0900351E0FF90034FE02F2400F8E2FE09
:104A0E00742F2FF582E43403F583EEF0900351E01A
:104A1E0004F07006900350E004F0900350E0700430
:104A2E00A3E0641070CB90034CE0FCA3E0FDD394A4
:104A3E0000EC6480948040097B017A03792E125138
:014A4E002F38
:014A4F002244
:0B464D0090032EEBF0A3EAF0A3E9F0CD
:10465800E4A3F0A3F0C3ED9404EC648094805003C9
:104668000247B890032EE0FBA3E0FAA3E0F990001C
:1046780001124A69FFD3940F40030247B8EF75F05F
:1046880010A4FF900331E5F0F0A3EFF090000212C0
:104698004A69F4600302477B900333F0A3F0900368
:1046A80033E0FEA3E0FFC39410EE648094804003DF
:1046B8000247B890032EE0FBA3E0FAA3E0F98F824B
:1046C8008E83A3A3A3124A69FF900334E0FE9003EC
:1046D80032E02E2400F8EFF2900331E07002A3E0FC
:1046E800600302476A900333E07004A3E064047037
:1046F80071900332E0FF2400F87441F290032EE039
:10470800FBA3E0FAA3E0F9900334E02403FD90034F
:1047180033E034008D82F583124A69FE900334E059
:10472800FDEF2D2400F8EEF2E004F070069003335C
:10473800E004F0900334E02403FD900333E03400F8
:104748008D82F583124A69FE900334E02F2400F825
:10475800EEF2900003124A69FF900332E02400F859
:10476800EFF2900334E004F07006900333E004F0B5
:104778000246A690032EE0FBA3E0FAA3E0F990001E
:1047880002124A69FF900332E02FF0900331E034BF
:1047980000F0900003124A69FF900332E0FE240003
:1047A800F8EFF2900004124A69FF74012EF8EFF254
:0147B80022DE
:0B4B390090032EEBF0A3EAF0A3E9F0DC
:104B4400E4A3F0A3F0A3F0A3F090032EE0FBA3E012
:104B5400FAA3E0F9900001124A69FFD3940F4003CD
:104B6400024C1BEF7003024C1BD3ED9464EC648085
:104B740094804003024C1B900001124A6975F010A6
:104B8400A4FFAEF0900331EEF0A3EFF024079003FE
:104B940034F0E43E900333F0900332E0FF2400F855
:104BA4007455F274012FF87459F2900002124A6994
:104BB400FE74062FF8EEF2E4900335F0A3F09003B0
:104BC40035E0FEA3E0FFC39408EE64809480503582
:104BD40090032EE0FBA3E0FAA3E0F98F828E83A377
:104BE400A3A3124A69FF900336E0FE900334E02E3B
:104BF4002400F8EFF2900336E004F070C19003351E
:104C0400E004F080B9900332E0FF2400F874A9F2C4
:074C140074012FF874F6F2A1
:014C1B002276
:1044A200E4900329F0A3F0A3F0A3F012516B125190
:1044B200AD124D901251BFE490032DF09003D3E062
:1044C20060FA9003C4E06401703BD390032CE09443
:1044D2000390032BE0648094804008C28CE4F0A334
:1044E200F080227B017A0379C77D027C0012512F72
:1044F200E49003C4F090032CE004F0700690032BC8
:10450200E004F0B2ED9003C5E07004A3E064017032
:1045120008B2EC9003C5F0A3F09003A3E0B4011835
:104522007B017A0379A6A3E0FCA3E0FD12512FE4FC
:104532009003A3F0A3F0A3F03098871251D4900314
:104542002DEFF07B017A03790B124E47900329EE8F
:10455200F0A3EFF0D39400EE648094805003024401
:10456200C47B017A03790B900329E0FCA3E0FD12DE
:104572004F88EF64014E600302464390030BE01440
:10458200603214604214604B14605B24F4605C245B
:10459200F06076242170030246371460030246431A
:1045A2007B017A03790B900329E0FCA3E0FD124919
:1045B2001E0246437B017A03790B900329E0FCA398
:1045C200E0FD12464D807A90030CE0FF7E0012510E
:1045D20095806E7B017A03790B900329E0FCA3E0BE
:1045E200FD124B39805B124D9080567B017A037924
:1045F2000B90032AE024FEFD900329E034FFFC1215
:1046020047B9208C3CD28C8038208C02D28C90030B
:104612000EE0B42F07E490032BF0A3F07B017A03A2
:10462200790B90032AE024FEFD900329E034FFFC7D
:104632001247B9800C208C02D28CE490032BF0A399
:0B464200F0E4900329F0A3F00244C450
:0A448B004203D100004203CD0000FF
:10400000900370EBF0A3EAF0A3E9F0A3ECF0A3EDCA
:01401000F0BF
:10401100E4900378F0A3F012507990037CEEF0A3C2
:10402100EFF0900375E0FBA3E475F001124AE0A9FB
:10403100F0FA74C0124A96900378E4F0A304F0E415
:10404100A3F0A3F0900373E0FEA3E0FFC390037B12
:10405100E09FEE6480F890037AE064809840030268
:10406100412B900370E0FBA3E0FAA3E0F9124A5060
:10407100FF2425603E241B7074900375E0FBA3E4CC
:1040810075F001124AE0A9F0FA74DB124A96900326
:1040910075E0FBA3E475F001124AE0A9F0FA74DCC3
:1040A100124A96900379E004F07056900378E00488
:1040B100F0804E900375E0FBA3E475F001124AE035
:1040C100A9F0FA74DB124A96900375E0FBA3E4753C
:1040D100F001124AE0A9F0FA74DD124A96900379D0
:1040E100E004F0701C900378E004F08014900375F4
:1040F100E0FBA3E475F001124AE0A9F0FAEF124ADD
:1041010096900379E004F07006900378E004F09053
:104111000371E475F001124ACA90037BE004F07068
:104121000690037AE004F002404590037CE0FF240E
:1041310025603E241B7074900375E0FBA3E475F0C9
:1041410001124AE0A9F0FA74DB124A96900375E075
:10415100FBA3E475F001124AE0A9F0FA74DC124AFB
:1041610096900379E004F07056900378E004F080B3
:104171004E900375E0FBA3E475F001124AE0A9F04B
:10418100FA74DB124A96900375E0FBA3E475F00123
:10419100124AE0A9F0FA74DD124A96900379E0041C
:1041A100F0701C900378E004F08014900375E0FB3C
:1041B100A3E475F001124AE0A9F0FAEF124A9690D1
:1041C100037DE0FF2425603E241B7074900375E09D
:1041D100FBA3E475F001124AE0A9F0FA74DB124A7C
:1041E10096900375E0FBA3E475F001124AE0A9F093
:1041F100FA74DC124A96900379E004F07056900349
:1042010078E004F0804E900375E0FBA3E475F001C3
:10421100124AE0A9F0FA74DB124A96900375E0FBAA
:10422100A3E475F001124AE0A9F0FA74DD124A968E
:10423100900379E004F0701C900378E004F080149E
:10424100900375E0FBA3E475F001124AE0A9F0FACE
:10425100EF124A96900375E0FBA3E475F001124A50
:10426100E0A9F0FA74C0124A96900379E02403FFA2
:07427100900378E03400FE29
:014278002223
:024E4700AD07B5
:104E49009003D1E07002A3E06020E49003D1F0A3C5
:104E5900F0EDB4DC047DC08067EDB4DD047DDB805A
:104E69005FE49003CDF0A3F08056EDB4DB0D900321
:104E7900D1E4F0A304F07E007F0022ED64C070400D
:104E89009003CDE07002A3E0701E9003CAEBF0A37B
:104E9900EAF0A3E9F0E49003CFF0A3F09003CDF09A
:104EA900A304F07E007F00229003CFE0FEA3E0FF81
:104EB90090032EEEF0A3EFF0E49003CDF0A3F022DF
:104EC9009003CDE07004A3E0640170229003CAE06E
:104ED900FBA3E475F001124AE0A9F0FAED124A9633
:104EE9009003D0E004F070069003CFE004F07E0058
:024EF9007F0038
:014EFB002294
:0C4495004103D5004103D4004103D300D3
:104D9000C2AF43E84053B1FC7591F778007441F21B
:104DA00078047443F208744DF278007401F27806C6
:104DB000740FF20874FFF208741FF208F208F20888
:104DC000F208F208F208F208F2780174E7F27D01C5
:104DD0007C00EDC4F8540FC868FFECC454F048FEE2
:104DE00074002FF874A9F2AB0774012BF87455F214
:104DF000D3ED9403EC64809480500974062BF8740E
:104E000008F2802DED640E4C701474022FF8E4F259
:104E100074032FF8E4F274062FF8E4F2801374029E
:104E20002FF8E4F274032FF87440F274062FF8E4BC
:104E3000F20DBD00010CED640F4C7096759A02786E
:064E4000007406F2D2AF7F
:014E46002249
:105195007801E254186002E4F274002FF874A9F261
:0851A50074012FF874E7F222F7
:1047B90090032EEBF0A3EAF0A3E9F0A3ECF0A3ED4C
:0147C900F0FF
:1047CA00900335E4F0A37410F0ED24FEFFEC34FFFF
:1047DA00AD07FC90032EE0FBA3E0FAA3E0F99000FA
:1047EA0001124A6924FE601314601C24027024908A
:1047FA0003377410F0A37420F080219003377410EB
:10480A00F0A37440F080159003377410F0A374601D
:10481A00F080099003377410F0A3E4F0900333E4B6
:10482A00F0A304F0900333E0FEA3E0FFD39403EE79
:10483A0064809480502DEFC4F8540FC868900336F2
:10484A00F0EEC454F048900335F0A3E02401F8E2F6
:10485A0030E110900334E004F070C9900333E004AF
:10486A00F080C1900336E0F92401F874DBF2A3E08A
:10487A00FF740229F8EFF2A3E0FF740329F8EFF2BC
:10488A00EDC4F8540FC868FFECC454F048EF24088C
:10489A00FF740629F8EFF2E4900333F0A3F09003D3
:1048AA0031E0FEA3E0FFA3E0FCA3E0FDC39FEE64BA
:1048BA0080F8EC648098503FC3ED9408EC648094CF
:1048CA0080503490032EE0FBA3E0FAA3E0F98D8236
:1048DA008C83A3A3124A69FF900334E0FE90033647
:1048EA00E02E2407F8EFF2900334E004F070AF9062
:1048FA000333E004F080A7900336E0FF2400F87445
:10490A00A9F274012FF87456F2900335E0FEA3E081
:04491A00FF025195B2
:104C1C00900304EBF0A3EAF0A3E9F0A3ECF0A3ED0E
:014C2C00F097
:104C2D00E4A3F0A3F0900308E02406F8E2FFA3E468
:104C3D00F0A3EFF0900309E0FEA3E07804CEA2E725
:104C4D0013CE13D8F8F0EE900309F0E4FFFED390E5
:104C5D00030AE09FEE6480F8900309E064809840B9
:104C6D0035EF9408EE64809480502B900308E02F6C
:104C7D002407F8E2FD900304E0FBA3E0FAA3E0248F
:104C8D0003F9E43AFAE92FF9EA3EFAED124A960FE2
:104C9D00BF00010E80B8900308E02401F87455F2AE
:104CAD00900304E0FBA3E0FAA3E0F97401124A9625
:104CBD00900309E0FEA3E0FF900304E0FBA3E0FAFC
:0C4CCD00A3E0F9900001EE8FF0024AF61F
:1051AD00C2AF438902758C37858C8AD2A9D2AFD212
:0251BD008C2242
:03000000024EFCB1
:0C4EFC00787FE4F6D8FD758107024F4373
:104A5000BB010689828A83E0225002E722BBFE0264
:094A6000E32289828A83E4932297
:104A6900BB010CE58229F582E5833AF583E0225002
:104A790006E92582F8E622BBFE06E92582F8E2224C
:0D4A8900E58229F582E5833AF583E4932266
:104A9600BB010689828A83F0225002F722BBFE01FF
:024AA600F322F9
:104AA800F8BB010DE58229F582E5833AF583E8F044
:104AB800225006E92582C8F622BBFE05E92582C8F0
:024AC800F222D8
:104ACA00C5F0F8A3E028F0C5F0F8E5821582700277
:064ADA001583E038F02214
:104AE000A3F8E0C5F025F0F0E58215827002158389
:064AF000E0C838F0E822E6
:104AF600F8BB0111E58229F582E5833AF583E8F0F2
:104B0600E5F0A3F0225009E92582C8F608A6F022AE
:0D4B1600BBFE09E92582C8F2E5F008F22295
:104B2300EB9FF5F0EA9E42F0E99D42F0EC6480C809
:064B330064809845F022A9
:104F08000244A2E493A3F8E493A34003F68001F2D9
:104F180008DFF48029E493A3F85407240CC8C333AA
:104F2800C4540F4420C8834004F456800146F6DF79
:104F3800E4800B0102040810204080904279E47E4E
:104F4800019360BCA3FF543F30E509541FFEE4936E
:104F5800A360010ECF54C025E060A840B8E493A335
:104F6800FAE493A3F8E493A3C8C582C8CAC583CA60
:104F7800F0A3C8C582C8CAC583CADFE9DEE780BE18
:0144A100001A
:00000001FF
