:094279004203CA00004103C90020
:10519000C2AF438920759850758DFBE4F5997587EA
:1051A00080D2AFD28E9003A8F0A3F0A3F0FFFE7ED2
:0951B0001E90038AE4F0A3DEFC6A
:0151B90022D3
:0851F1003099FD8F99C299224B
:0751F9003098FDAF99C29848
:01520000228B
:1051540090037A7401F0A37403F0A37457F012401F
:1051640000AD07AC06E4FBFAC3EB9DEC6480F8EAFF
:10517400648098501674572BF582E43403F583E069
:0B518400FF1251F10BBB00010A80DD9F
:01518F0022FD
:10510D007403124ABB7801E2FF30E7089000017486
:10511D00FF024ACDEF540724FE601314601824FDDE
:10512D00601C2405702090000174F0024ACD90009F
:10513D000174F1024ACD90000174F2024ACD900043
:07514D000174F3124ACD22A8
:10428200620001000000102120423063408450A5EA
:1042920060C670E781089129A14AB16BC18CD1AD8A
:1042A200E1CEF1EF123102103273225252B5429432
:1042B20072F762D693398318B37BA35AD3BDC39CDA
:1042C200F3FFE3DE246234430420140164E674C77E
:1042D20044A45485A56AB54B85289509E5EEF5CF2A
:1042E200C5ACD58D365326721611063076D766F6D2
:1042F200569546B4B75BA77A97198738F7DFE7FE7A
:10430200D79DC7BC48C458E5688678A7084018619D
:1043120028023823C9CCD9EDE98EF9AF89489969C9
:10432200A90AB92B5AF54AD47AB76A961A710A5071
:104332003A332A12DBFDCBDCFBBFEB9E9B798B5819
:10434200BB3BAB1A6CA67C874CE45CC52C223C03BD
:104352000C601C41EDAEFD8FCDECDDCDAD2ABD0B69
:104362008D689D497E976EB65ED54EF43E132E3211
:104372001E510E70FF9FEFBEDFDDCFFCBF1BAF3AB9
:104382009F598F78918881A9B1CAA1EBD10CC12D17
:10439200F14EE16F108000A130C220E350044025AD
:1043A2007046606783B99398A3FBB3DAC33DD31C0D
:1043B200E37FF35E02B1129022F332D242355214FD
:1043C20062777256B5EAA5CB95A88589F56EE54F59
:1043D200D52CC50D34E224C314A00481746664474D
:1043E20054244405A7DBB7FA879997B8E75FF77EAD
:1043F200C71DD73C26D336F2069116B0665776769D
:1044020046155634D94CC96DF90EE92F99C889E978
:10441200B98AA9AB584448657806682718C008E1EC
:10442200388228A3CB7DDB5CEB3FFB1E8BF99BD84C
:10443200ABBBBB9A4A755A546A377A160AF11AD03C
:104442002AB33A92FD2EED0FDD6CCD4DBDAAAD8B98
:104452009DE88DC97C266C075C644C453CA22C838C
:104462001CE00CC1EF1FFF3ECF5DDF7CAF9BBFBAEC
:104472008FD99FF86E177E364E555E742E933EB2DC
:044482000ED11EF049
:10509E00900383EBF0A3EAF0A3E9F0A3ECF0A3ED09
:0150AE00F011
:1050AF00E4A3F0A3F090038674FFF5F0124B0545CF
:1050BF00F06042900383E0FBA3E475F001124B050F
:1050CF00A9F0FA124A75FD900388E0FAA3E0FBEA13
:1050DF00FFE4EF6D25E0FFE433FE74002FF58274DB
:1050EF00013EF583EBFEE06EFFA3E0900388CFF067
:0D50FF00A3EFF080B0900388E0FEA3E0FF77
:01510C002280
:104FAD00900333EBF0A3EAF0A3E9F0A3ECF0A3ED4B
:014FBD00F003
:104FBE00E4A3F0A3F090033674FFF5F0124B054511
:104FCE00F06042900333E0FBA3E475F001124B0551
:104FDE00A9F0FA124A75FD900338E0FAA3E0FBEA55
:104FEE00FFE4EF6D25E0FFE433FE74002FF58274CD
:104FFE00013EF583EBFEE06EFFA3E0900338CFF0A9
:10500E00A3EFF080B0900338E07002A3E07005FECD
:08501E007F0180047E007F0089
:015026002267
:054486004203DB000011
:03000B0002502779
:10502700C0E0C0F0C083C082C0D075D000C000C04F
:1050370001C002C003C004C005C006C0079003DB5F
:10504700E0FEA3E0FFE4FCFD7BC87AAFF9F8C312EA
:105057004B48701A9003CC04F0A3741FF09003C957
:105067007401F0B2E89003DBE4F0A3F0800E900344
:10507700DCE004F070069003DBE004F0D007D00614
:10508700D005D004D003D002D001D000D0D0D08238
:07509700D083D0F0D0E0321D
:03008B00024CFE26
:104CFE00C0E0C0F0C083C082C0D075D000C000C07C
:0D4D0E0001C002C003C004C005C006C007FC
:104D1B007802E2900301F018E2900300F030E71301
:104D2B007B017A03798A12510D9003CAE4F0A30434
:104D3B00F0B2EB900301E0FFC394034052EF24FE6B
:104D4B0075F010A4FFA3E5F0F0A3EFF09003CAE415
:104D5B00F0A3F0900300E0FF30E302B2E9EF30E4A0
:104D6B0024900303E02408F8E2B41F069003D874E0
:104D7B0001F07B017A0379A8900302E0FCA3E0FD2C
:0F4D8B00124C41B2EA900303E02400F874FDF2E9
:104D9A00D007D006D005D004D003D002D001D0006D
:0B4DAA00D0D0D082D083D0F0D0E03217
:0D51E400D2E8D2E9D2EAD2EBD2ECD2ED2231
:10494300E4900351F0A3F0A3F0A3F0C3ED9402ECC1
:10495300648094805003024A74900001124A8EFFCF
:10496300D3940F4003024A74EF60030249F69000A8
:1049730002124A8EFFB4FF47E4900333F0900355CD
:10498300F0A3F0900356E0FE2400F8E2FD74342E09
:10499300F582E43403F583EDF0900356E004F07000
:1049A30006900355E004F0900355E07004A3E0641F
:1049B3001070D0900351E4F0A37411F0024A59EF40
:1049C300C394005003024A59EFD3940F4003024AA1
:1049D30059900002124A8EFF900353E4F0A3EFF0C4
:1049E300E02400F8E2900333F0900351E4F0A304D1
:1049F300F08063900351E4F0A37411F0900001126E
:104A03004A8E75F010A4FF900353E5F0F0A3EFF086
:104A1300900001124A8E900333F0E4900355F0A303
:104A2300F0900356E0FF900354E02F2400F8E2FED9
:104A330074342FF582E43403F583EEF0900356E0EB
:104A430004F07006900355E004F0900355E0700401
:104A5300A3E0641070CB900351E0FCA3E0FDD3947A
:104A630000EC6480948040097B017A03793312510E
:014A730054EE
:014A7400221F
:0B467200900333EBF0A3EAF0A3E9F0A3
:10467D00E4A3F0A3F0C3ED9404EC648094805003A4
:10468D000247DD900333E0FBA3E0FAA3E0F99000CD
:10469D0001124A8EFFD3940F40030247DDEF75F0F0
:1046AD0010A4FF900336E5F0F0A3EFF09000021296
:1046BD004A8EF460030247A0900338F0A3F09003F4
:1046CD0038E0FEA3E0FFC39410EE648094804003B5
:1046DD000247DD900333E0FBA3E0FAA3E0F98F82FC
:1046ED008E83A3A3A3124A8EFF900339E0FE90039D
:1046FD0037E02E2400F8EFF2900336E07002A3E0CD
:10470D00600302478F900338E07004A3E0640470E7
:10471D0071900337E0FF2400F87441F2900333E009
:10472D00FBA3E0FAA3E0F9900339E02403FD900325
:10473D0038E034008D82F583124A8EFE900339E005
:10474D00FDEF2D2400F8EEF2E004F0700690033832
:10475D00E004F0900339E02403FD900338E03400C9
:10476D008D82F583124A8EFE900339E02F2400F8D6
:10477D00EEF2900003124A8EFF900337E02400F80A
:10478D00EFF2900339E004F07006900338E004F086
:10479D000246CB900333E0FBA3E0FAA3E0F99000CF
:1047AD0002124A8EFF900337E02FF0900336E0346B
:1047BD0000F0900003124A8EFF900337E0FE2400B4
:1047CD00F8EFF2900004124A8EFF74012EF8EFF20A
:0147DD0022B9
:0B4B5E00900333EBF0A3EAF0A3E9F0B2
:104B6900E4A3F0A3F0A3F0A3F0900333E0FBA3E0E8
:104B7900FAA3E0F9900001124A8EFFD3940F400383
:104B8900024C40EF7003024C40D3ED9464EC648016
:104B990094804003024C40900001124A8E75F01037
:104BA900A4FFAEF0900336EEF0A3EFF024079003D4
:104BB90039F0E43E900338F0900337E0FF2400F821
:104BC9007455F274012FF87459F2900002124A8E4A
:104BD900FE74062FF8EEF2E490033AF0A3F0900386
:104BE9003AE0FEA3E0FFC39408EE64809480503558
:104BF900900333E0FBA3E0FAA3E0F98F828E83A34D
:104C0900A3A3124A8EFF90033BE0FE900339E02EE6
:104C19002400F8EFF290033BE004F070C190033AEE
:104C2900E004F080B9900337E0FF2400F874A9F29A
:074C390074012FF874F6F27C
:014C40002251
:1044A200E4900329F0A3F0A3F0A3F012519012516B
:1044B200D2124DB51251E4E490032DF09003D8E0EE
:1044C20060FA9003C9E064017045D390032CE09434
:1044D2000390032BE0648094804008C28CE4F0A334
:1044E200F0802C90032E7420F0A37401F0A37403C7
:1044F200F0A3742FF07B017A03792E7D047C0012E5
:1045020047DEE49003C9F090032BF0A3F0B2ED90E4
:1045120003CAE07004A3E064017008B2EC9003CA1D
:10452200F0A3F09003A8E0B4013090032E7420F0C1
:104532009003ABE090032FF0A37403F0A37422F076
:10454200A3747EF07B017A03792E7D057C001247ED
:10455200DEE49003A8F0A3F0A3F02098030244C481
:104562001251F990032DEFF07B017A03790B124E71
:104572006C900329EEF0A3EFF0D39400EE648094E4
:104582008050030244C47B017A03790B900329E033
:10459200FCA3E0FD124FADEF64014E6003024668DA
:1045A20090030BE014603214604214604B14605BA1
:1045B20024F4605C24F060762421700302465C14CB
:1045C20060030246687B017A03790B900329E0FCC1
:1045D200A3E0FD1249430246687B017A03790B90FE
:1045E2000329E0FCA3E0FD124672807A90030CE0FE
:1045F200FF7E001251BA806E7B017A03790B900321
:1046020029E0FCA3E0FD124B5E805B124DB58056A3
:10461200208C02D28C7B017A03790B90032AE0244E
:10462200FEFD900329E034FFFC1247DE8038208C27
:1046320002D28C90030EE0B42F07E490032BF0A378
:10464200F07B017A03790B90032AE024FEFD9003AC
:1046520029E034FFFC1247DE800C208C02D28CE46D
:1046620090032BF0A3F0E4900329F0A3F00244C4DA
:0A448B004203D600004203D20000F5
:10400000900375EBF0A3EAF0A3E9F0A3ECF0A3EDC5
:01401000F0BF
:10401100E490037DF0A3F012509E900381EEF0A393
:10402100EFF090037AE0FBA3E475F001124B05A9D0
:10403100F0FA74C0124ABB90037DE4F0A304F0E4EB
:10404100A3F0A3F0900378E0FEA3E0FFC390038008
:10405100E09FEE6480F890037FE064809840030263
:10406100412B900375E0FBA3E0FAA3E0F9124A7536
:10407100FF2425603E241B707490037AE0FBA3E4C7
:1040810075F001124B05A9F0FA74DB124ABB9003DB
:104091007AE0FBA3E475F001124B05A9F0FA74DC98
:1040A100124ABB90037EE004F0705690037DE00459
:1040B100F0804E90037AE0FBA3E475F001124B050A
:1040C100A9F0FA74DB124ABB90037AE0FBA3E47512
:1040D100F001124B05A9F0FA74DD124ABB90037E80
:1040E100E004F0701C90037DE004F0801490037AEA
:1040F100E0FBA3E475F001124B05A9F0FAEF124AB7
:10410100BB90037EE004F0700690037DE004F09024
:104111000376E475F001124AEF900380E004F07039
:104121000690037FE004F0024045900381E0FF2404
:1041310025603E241B707490037AE0FBA3E475F0C4
:1041410001124B05A9F0FA74DB124ABB90037AE025
:10415100FBA3E475F001124B05A9F0FA74DC124AD5
:10416100BB90037EE004F0705690037DE004F08084
:104171004E90037AE0FBA3E475F001124B05A9F020
:10418100FA74DB124ABB90037AE0FBA3E475F001F9
:10419100124B05A9F0FA74DD124ABB90037EE004CC
:1041A100F0701C90037DE004F0801490037AE0FB32
:1041B100A3E475F001124B05A9F0FAEF124ABB9086
:1041C1000382E0FF2425603E241B707490037AE093
:1041D100FBA3E475F001124B05A9F0FA74DB124A56
:1041E100BB90037AE0FBA3E475F001124B05A9F043
:1041F100FA74DC124ABB90037EE004F0705690031F
:104201007DE004F0804E90037AE0FBA3E475F001B9
:10421100124B05A9F0FA74DB124ABB90037AE0FB5A
:10422100A3E475F001124B05A9F0FA74DD124ABB43
:1042310090037EE004F0701C90037DE004F0801494
:1042410090037AE0FBA3E475F001124B05A9F0FAA3
:10425100EF124ABB90037AE0FBA3E475F001124B25
:1042610005A9F0FA74C0124ABB90037EE02403FF53
:0742710090037DE03400FE24
:014278002223
:024E6C00AD0790
:104E6E009003D6E07002A3E06020E49003D6F0A396
:104E7E00F0EDB4DC047DC08067EDB4DD047DDB8035
:104E8E005FE49003D2F0A3F08056EDB4DB0D9003F7
:104E9E00D6E4F0A304F07E007F0022ED64C07040E3
:104EAE009003D2E07002A3E0701E9003CFEBF0A34C
:104EBE00EAF0A3E9F0E49003D4F0A3F09003D2F06B
:104ECE00A304F07E007F00229003D4E0FEA3E0FF57
:104EDE00900333EEF0A3EFF0E49003D2F0A3F022B0
:104EEE009003D2E07004A3E0640170229003CFE03F
:104EFE00FBA3E475F001124B05A9F0FAED124ABBC3
:104F0E009003D5E004F070069003D4E004F07E0028
:024F1E007F0012
:014F2000226E
:0C4495004103DA004103D9004103D800C4
:104DB500C2AF43E84053B1FC7591F778007441F2F6
:104DC50078047443F208744DF278007401F27806A1
:104DD500740FF20874FFF208741FF208F208F20863
:104DE500F208F208F208F208F2780174E7F27D01A0
:104DF5007C00EDC4F8540FC868FFECC454F048FEBD
:104E050074002FF874A9F2AB0774012BF87455F2EE
:104E1500D3ED9403EC64809480500974062BF874E8
:104E250008F2802DED640E4C701474022FF8E4F234
:104E350074032FF8E4F274062FF8E4F28013740279
:104E45002FF8E4F274032FF87460F274062FF8E477
:104E5500F20DBD00010CED640F4C7096759A027849
:064E6500007406F2D2AF5A
:014E6B002224
:1051BA007801E254186002E4F274002FF874A9F23C
:0851CA0074012FF874E7F222D2
:1047DE00900333EBF0A3EAF0A3E9F0A3ECF0A3ED22
:0147EE00F0DA
:1047EF0090033AE4F0A37410F0ED24FEFFEC34FFD5
:1047FF00AD07FC900333E0FBA3E0FAA3E0F99000D0
:10480F0001124A8E24FE601314601C24027024903F
:10481F00033C7410F0A37420F0802190033C7410BB
:10482F00F0A37440F0801590033C7410F0A37460F3
:10483F00F0800990033C7410F0A3E4F0900338E487
:10484F00F0A304F0900338E0FEA3E0FFD39403EE4F
:10485F0064809480502DEFC4F8540FC86890033BC8
:10486F00F0EEC454F04890033AF0A3E02401F8E2CC
:10487F0030E110900339E004F070C9900338E00480
:10488F00F080C190033BE0F92401F874DBF2A3E060
:10489F00FF740229F8EFF2A3E0FF740329F8EFF297
:1048AF00EDC4F8540FC868FFECC454F048EF240867
:1048BF00FF740629F8EFF2E4900338F0A3F09003A9
:1048CF0036E0FEA3E0FFA3E0FCA3E0FDC39FEE6490
:1048DF0080F8EC648098503FC3ED9408EC648094AA
:1048EF00805034900333E0FBA3E0FAA3E0F98D820C
:1048FF008C83A3A3124A8EFF900339E0FE90033BF3
:10490F00E02E2407F8EFF2900339E004F070AF9037
:10491F000338E004F080A790033BE0FF2400F87415
:10492F00A9F274012FF87456F290033AE0FEA3E057
:04493F00FF0251BA68
:104C4100900304EBF0A3EAF0A3E9F0A3ECF0A3EDE9
:014C5100F072
:104C5200E4A3F0A3F0900308E02406F8E2FFA3E443
:104C6200F0A3EFF0900309E0FEA3E07804CEA2E700
:104C720013CE13D8F8F0EE900309F0E4FFFED390C0
:104C8200030AE09FEE6480F8900309E06480984094
:104C920035EF9408EE64809480502B900308E02F47
:104CA2002407F8E2FD900304E0FBA3E0FAA3E0246A
:104CB20003F9E43AFAE92FF9EA3EFAED124ABB0F98
:104CC200BF00010E80B8900308E02401F87455F289
:104CD200900304E0FBA3E0FAA3E0F97401124ABBDB
:104CE200900309E0FEA3E0FF900304E0FBA3E0FAD7
:0C4CF200A3E0F9900001EE8FF0024B1BD4
:1051D200C2AF438902758C37858C8AD2A9D2AFD2ED
:0251E2008C221D
:03000000024F218B
:0C4F2100787FE4F6D8FD758107024F6828
:104A7500BB010689828A83E0225002E722BBFE023F
:094A8500E32289828A83E4932272
:104A8E00BB010CE58229F582E5833AF583E02250DD
:104A9E0006E92582F8E622BBFE06E92582F8E22227
:0D4AAE00E58229F582E5833AF583E4932241
:104ABB00BB010689828A83F0225002F722BBFE01DA
:024ACB00F322D4
:104ACD00F8BB010DE58229F582E5833AF583E8F01F
:104ADD00225006E92582C8F622BBFE05E92582C8CB
:024AED00F222B3
:104AEF00C5F0F8A3E028F0C5F0F8E5821582700252
:064AFF001583E038F022EF
:104B0500A3F8E0C5F025F0F0E58215827002158363
:064B1500E0C838F0E822C0
:104B1B00F8BB0111E58229F582E5833AF583E8F0CC
:104B2B00E5F0A3F0225009E92582C8F608A6F02289
:0D4B3B00BBFE09E92582C8F2E5F008F22270
:104B4800EB9FF5F0EA9E42F0E99D42F0EC6480C8E4
:064B580064809845F02284
:104F2D000244A2E493A3F8E493A34003F68001F2B4
:104F3D0008DFF48029E493A3F85407240CC8C33385
:104F4D00C4540F4420C8834004F456800146F6DF54
:104F5D00E4800B0102040810204080904279E47E29
:104F6D00019360BCA3FF543F30E509541FFEE49349
:104F7D00A360010ECF54C025E060A840B8E493A310
:104F8D00FAE493A3F8E493A3C8C582C8CAC583CA3B
:104F9D00F0A3C8C582C8CAC583CADFE9DEE780BEF3
:0144A100001A
:00000001FF
